:100000000C942A000C9447000C9447000C94470071
:100010000C9447000C9447000C9447000C94470044
:100020000C9447000C9447000C941E030C94F702A8
:100030000C9447000C9447000C9447000C94470024
:100040000C9447000C9447000C9447000C94470014
:100050000C94470011241FBECFE5D8E0DEBFCDBF12
:1000600010E0A0E6B0E0E0EAFBE002C005900D92EF
:10007000A637B107D9F720E0A6E7B0E001C01D928E
:10008000AC37B207E1F70E94FE010C94CE050C9448
:10009000000087B1806487B986B1806886B986B16F
:1000A000816086B986B1826086B986B1846086B97E
:1000B000089586B1806486B93699FECF84B195B132
:1000C000089598B3977F98BB882324F498B39068D9
:1000D00098BB03C098B39F7798BB86FF04C098B3C2
:1000E000906498BB03C098B39F7B98BB85FF04C006
:1000F00098B3906298BB03C098B39F7D98BB84FF70
:1001000004C098B3906198BB03C098B39F7E98BB1E
:1001100098B3946098BBEFE9FFE03197F1F700C026
:10012000000098B39B7F98BBEFE9FFE03197F1F7B0
:1001300000C0000083FF04C098B3906898BB03C060
:1001400098B39F7798BB82FF04C098B3906498BB24
:1001500003C098B39F7B98BB81FF04C098B39062A3
:1001600098BB03C098B39F7D98BB80FF04C088B341
:10017000806188BB03C088B38F7E88BB88B38460EE
:1001800088BB8FE99FE00197F1F700C0000088B3BA
:100190008B7F88BBEFE9FFE03197F1F700C00000EB
:1001A000089587B38C6F87BB83E00E9461008FE75F
:1001B0009EE30197F1F700C0000083E00E94610018
:1001C0008FE79EE30197F1F700C0000083E00E94F3
:1001D00061008FE79EE30197F1F700C0000082E025
:1001E0000E94610088E20E94610088E00E94610034
:1001F00081E00E94610086E00E9461008CE00E9424
:1002000061009FEF29EF80E0915020408040E1F7AE
:1002100000C00000089598B3986098BB882324F428
:1002200098B3906898BB03C098B39F7798BB86FF3C
:1002300004C098B3906498BB03C098B39F7B98BBED
:1002400085FF04C098B3906298BB03C098B39F7DAC
:1002500098BB84FF04C098B3906198BB03C098B367
:100260009F7E98BB98B3946098BBEFE9FFE031970D
:10027000F1F700C0000098B39B7F98BBEFE9FFE067
:100280003197F1F700C0000083FF04C098B3906875
:1002900098BB03C098B39F7798BB82FF04C098B304
:1002A000906498BB03C098B39F7B98BB81FF04C048
:1002B00098B3906298BB03C098B39F7D98BB80FFB2
:1002C00004C088B3806188BB03C088B38F7E88BBBD
:1002D00088B3846088BB8FE99FE00197F1F700C085
:1002E000000088B38B7F88BBEFE9FFE03197F1F71F
:1002F00000C0000008950F931F93CF938C01C0E0BE
:1003000003C00E940B01CF5FF801EC0FF11D80814B
:100310008111F7CFCF911F910F9108951F93CF9324
:10032000DF93CDB7DEB72A970FB6F894DEBF0FBEC6
:10033000CDBF6115710581059105D1F480E30E945F
:100340000B012CC02AE030E040E050E00E9498050C
:10035000E1E0F0E0EC0FFD1FE10FF11D17FDFA9554
:10036000605D6083622F732F842F952F1F5F01C004
:1003700010E0611571058105910521F711500CC040
:10038000E1E0F0E0EC0FFD1FE10FF11D17FDFA9524
:1003900080810E940B011150112394F72A960FB609
:1003A000F894DEBF0FBECDBFDF91CF911F910895AE
:1003B0008091760081110AC0809177000E947802B6
:1003C000809176008F5F809376000895809177000A
:1003D0000E94B102109276000895282F30E0235237
:1003E000310942E3429FC001439F900D11246FE009
:1003F00070E00E94840582E3860F08950E947402D3
:1004000088ED91E090937B0080937A008BE90E94C5
:10041000E3020E94D1000E9449000E94590024E694
:10042000AC01249FC001259F900D1124BC0180E0E8
:1004300090E00E94890420E030E04EE453E40E9402
:10044000E80320E030E040E05FE30E947C030E948C
:100450005A046093770080E80E94610080E690E093
:100460000E947B016091770070E080E090E00E9444
:100470008E0180917700833208F185B3806485BB5B
:100480000E944503809177000E94ED010E9458036D
:1004900080EC0E94610089E690E00E947B018091DF
:1004A00077000E94ED01682F70E080E090E00E94EC
:1004B0008E0183E790E00E947B01AFCF85B38F7BF5
:1004C00085BB0E94690380EC0E94610089E690E090
:1004D0000E947B0160E070E0CB010E948E0182E708
:1004E00090E00E947B0199CF84B38FEF84BB089585
:1004F0009DEC899F912D1124969596959695990F2F
:10050000292F220F220F920F891B982F85B380620B
:1005100085BB85B38F7E85BB90FF04C085B38160AA
:1005200085BB03C085B38E7F85BB91FF04C085B3B7
:10053000826085BB03C085B38D7F85BB92FF04C0FD
:1005400085B3846085BB03C085B38B7F85BB93FF78
:1005500004C085B3886085BB089585B3877F85BB5C
:1005600008959DEC899F812D112486958695869509
:1005700095B39F7D95BB95B3906195BB80FF04C0FB
:1005800095B3916095BB03C095B39E7F95BB81FFEA
:1005900004C095B3926095BB03C095B39D7F95BB96
:1005A00082FF04C095B3946095BB03C095B39B7F55
:1005B00095BB83FF04C085B3886085BB089585B370
:1005C000877F85BB089593B7916093BF93B794607D
:1005D00093BF93B7906893BF93B7986093BF8CBF56
:1005E00089B7826089BF8FB780688FBF08951F92D7
:1005F0000F920FB60F9211242F933F934F935F9357
:100600006F937F938F939F93AF93BF93EF93FF93DA
:10061000E0917800F09179000995FF91EF91BF91F9
:10062000AF919F918F917F916F915F914F913F918A
:100630002F910F900FBE0F901F9018951F920F9241
:100640000FB60F9211242F933F934F935F936F93A5
:100650007F938F939F93AF93BF93EF93FF93E0911B
:100660007A00F0917B000995FF91EF91BF91AF91D6
:100670009F918F917F916F915F914F913F912F91BA
:100680000F900FBE0F901F90189581B3806281BBB1
:100690008FB580688FBD8FB581608FBD8FB582604B
:1006A0008FBD8EB588608EBD8EB581608EBD08957C
:1006B000682F70E080E090E00E948B0424E13EEA25
:1006C00043E251E40E9417050E945A047BBD6ABDB3
:1006D00008951BBC1ABC8FB58F778FBD8FB58E7FE9
:1006E0008FBD8FB58D7F8FBD8EB5877F8EBD8EB54B
:1006F0008E7F8EBD08955058BB27AA270E94930372
:100700000C94DD040E94CF0438F00E94D60420F03F
:1007100039F49F3F19F426F40C94CC040EF4E095C0
:10072000E7FB0C94C604E92F0E94EE0458F3BA17B5
:10073000620773078407950720F079F4A6F50C94F7
:1007400010050EF4E0950B2EBA2FA02D0B01B90168
:1007500090010C01CA01A0011124FF27591B99F037
:10076000593F50F4503E68F11A16F040A22F232F43
:10077000342F4427585FF3CF469537952795A79593
:10078000F0405395C9F77EF41F16BA0B620B730B3A
:10079000840BBAF09150A1F0FF0FBB1F661F771FAB
:1007A000881FC2F70EC0BA0F621F731F841F48F460
:1007B000879577956795B795F7959E3F08F0B0CFE9
:1007C0009395880F08F09927EE0F979587950895D0
:1007D0000E94FC030C94DD040E94D60458F00E9491
:1007E000CF0440F029F45F3F29F00C94C604511166
:1007F0000C9411050C94CC040E94EE0468F3992328
:10080000B1F3552391F3951B550BBB27AA2762170C
:100810007307840738F09F5F5F4F220F331F441F19
:10082000AA1FA9F335D00E2E3AF0E0E832D091504D
:100830005040E695001CCAF72BD0FE2F29D0660F3A
:10084000771F881FBB1F261737074807AB07B0E87D
:1008500009F0BB0B802DBF01FF2793585F4F3AF083
:100860009E3F510578F00C94C6040C9411055F3F2F
:10087000E4F3983ED4F3869577956795B795F79509
:100880009F5FC9F7880F911D9695879597F90895F1
:10089000E1E0660F771F881FBB1F6217730784078D
:1008A000BA0720F0621B730B840BBA0BEE1F88F79C
:1008B000E09508950E94F60488F09F5798F0B92FAC
:1008C0009927B751B0F0E1F0660F771F881F991F85
:1008D0001AF0BA95C9F714C0B13091F00E94100512
:1008E000B1E008950C941005672F782F8827B85F22
:1008F00039F0B93FCCF3869577956795B395D9F7DD
:100900003EF490958095709561957F4F8F4F9F4FE6
:100910000895E89409C097FB3EF4909580957095F2
:1009200061957F4F8F4F9F4F9923A9F0F92F96E93B
:10093000BB279395F695879577956795B795F111B0
:10094000F8CFFAF4BB0F11F460FF1BC06F5F7F4F4D
:100950008F4F9F4F16C0882311F096E911C077235F
:1009600021F09EE8872F762F05C0662371F096E868
:10097000862F70E060E02AF09A95660F771F881F37
:10098000DAF7880F9695879597F9089597F99F67F5
:1009900080E870E060E008959FEF80EC0895002407
:1009A0000A941616170618060906089500240A94D4
:1009B00012161306140605060895092E0394000C5A
:1009C00011F4882352F0BB0F40F4BF2B11F460FFE9
:1009D00004C06F5F7F4F8F4F9F4F089557FD905812
:1009E000440F551F59F05F3F71F04795880F97FBF3
:1009F000991F61F09F3F79F08795089512161306AD
:100A00001406551FF2CF4695F1DF08C016161706DB
:100A10001806991FF1CF8695710561050894089510
:100A2000E894BB2766277727CB0197F908950E94A2
:100A30002A050C94DD040E94CF0438F00E94D604ED
:100A400020F0952311F00C94C6040C94CC041124CE
:100A50000C9411050E94EE0470F3959FC1F3950F5D
:100A600050E0551F629FF001729FBB27F00DB11D32
:100A7000639FAA27F00DB11DAA1F649F6627B00DC2
:100A8000A11D661F829F2227B00DA11D621F739FAB
:100A9000B00DA11D621F839FA00D611D221F749FB9
:100AA0003327A00D611D231F849F600D211D822F00
:100AB000762F6A2F11249F5750409AF0F1F0882327
:100AC0004AF0EE0FFF1FBB1F661F771F881F915054
:100AD0005040A9F79E3F510580F00C94C6040C9439
:100AE00011055F3FE4F3983ED4F3869577956795BB
:100AF000B795F795E7959F5FC1F7FE2B880F911D7E
:100B00009695879597F9089597FB072E16F400940C
:100B100007D077FD09D00E94BA0507FC05D03EF446
:100B2000909581959F4F0895709561957F4F089599
:100B3000A1E21A2EAA1BBB1BFD010DC0AA1FBB1FE1
:100B4000EE1FFF1FA217B307E407F50720F0A21B53
:100B5000B30BE40BF50B661F771F881F991F1A94C0
:100B600069F760957095809590959B01AC01BD01EA
:100B7000CF010895AA1BBB1B51E107C0AA1FBB1FD1
:100B8000A617B70710F0A61BB70B881F991F5A9519
:100B9000A9F780959095BC01CD010895F894FFCFF9
:100BA0002054656D70203D20002044757479203DEF
:060BB000200020202500BA
:00000001FF
